:100000000C9454080C947C080C947C080C947C0888
:100010000C947C080C947C080C947C080C947C0850
:100020000C947C080C947C080C9435140C94A71444
:100030000C947C080C947C080C947C080C947C0830
:100040000C947C080C947C080C947C080C947C0820
:100050000C947C080C947C080C947C080C941F175E
:100060000C947C080C947C080C947C080C947C0800
:100070000C947C080C947C080C947C080C947C08F0
:100080000C9484090C947C080C947C080C947C08D7
:100090000C947C080C947C080C947C080C947C08D0
:1000A0000C947C080C947C080C947C0805A84CCD1E
:1000B000B2D44EB93836A9020C50B9918688083CA2
:1000C000A6AAAA2ABE000000803FF0F89C8E878373
:1000D000878E9CF8F00000FEFF0303030303070E66
:1000E000FCF80000FEFF0303030303070EFCF80007
:1000F00000FFFF00000000000000FFFF0000FEFF07
:100100008383838383C7EE7C380000F8FC0E0703EB
:100110000303070EFCF800003F7FE0C08080C0E0D2
:100120007F3FFFFF01010101010101FFFF0000FF0F
:10013000FF0C0C0C0C1C3E77E3C100007FFFC0C01D
:10014000C0C0C0E0703F1F00001F3F70E0C0C0C0D3
:10015000E0703F1F00007FFFC1C1C1C1C1E3773E16
:100160001C00001F3F70E0C0C0C0E0703F1F0000D7
:1001700000000001FFFF01000000D5F08D14A1C8B0
:1001800081CFD9F1AF20004A010A000080DC0014C1
:1001900000C2011400DC001400C2011400DC0014D1
:1001A00000C2011400DC001400C2011400DC0014C1
:1001B00000C2011400008093002C01C400960000CE
:1001C0000096008801960000009600260196000027
:1001D000002C011501960000009600060196000013
:1001E000009600E9002C0100006400C400960000A5
:1001F00080000018B8B4B2F2BFBFBEA6FEBF9E9C7E
:100200004C0C0C0C0E070000000018B4B2B2F3BE88
:10021000BEE7BE9C5C0C0C0E070000000000000056
:1002200018B6B273B2B2F7BE5C1C0F00000000003B
:100230000000000000001CB6F3B232B2F3B61C009E
:10024000000000000000000000000F1C5CBEF7B2C0
:10025000B273B2B61800000000000000070E0C0CCC
:100260005C9CBEE7BEBEF3B2B2B41800000000074B
:100270000E0C0C0C4C9C9EBFFEA6BEBFBFF2B2B4CF
:10028000B818000015080000000000000000000081
:10029000000000000000000000000000000002025A
:1002A000020202020A0D0A02020202020200000019
:1002B0000000000002020200020A0F0A020002020D
:1002C00002000000000000000000000202020A0F0D
:1002D0000A0202020000000000000000000200020A
:1002E0000000000A0F0A00000002000200000015D2
:1002F00008000000000000000000000000000000F6
:10030000000000000000001C7F03007C3F0B483C05
:100310001F33243C1F63037F1C000B3F7C00331FF3
:100320003C48631F3C24040800000000E0F0F0F1AA
:10033000F0FAFCF8F0F0F0F0E00001010101030731
:10034000030101010100E0F0F1F0F0FAFCFAF0F035
:10035000F1F0E000010101010307030101010100C7
:10036000E0F0F0F0F0F8FCFAF0F1F0F0E00001015C
:10037000010103070301010101000D0D0000400010
:10038000400040004000400000000000000000006D
:10039000000000000000DC000A0018010500000059
:1003A00050000180DC000F00000078000180400157
:1003B0000A0018011400F000140004011E0000805F
:1003C000F0000A000401140018011E002C0128008E
:1003D0001801320000804A011400540114005E012B
:1003E000140068011400720114007C0114008601DD
:1003F0001400900114009A011400A4011400AE012D
:100400001400B80114004A011E0054011E005E01D0
:100410001E0068011E0072011E007C011E00860184
:100420001E0090011E009A011E00A4011E00AE01D4
:100430001E00B8011E004A011E0054011E005E018C
:100440001E0068011E0072011E007C011E00860154
:100450001E0090011E009A011E00A4011E00AE01A4
:100460001E00B8011E000080B80164009402140050
:100470002602140094021400260214009402320092
:100480000080B80114004A011400260232000080E6
:10049000E9004B0000004B00E9004B0000004B005E
:1004A000E9009600000096001501960006019600EE
:1004B00015012C015D01900100804A0114008101A9
:1004C0000F004A01140081010F004A01140081014C
:1004D0000F0000804A011400B801140081010F00D0
:1004E000B8010F00E0010A00EA010A00EF01320042
:1004F00000807FFFFFFFFF3F7FFFFFFFFFFFFFFF4A
:10050000FFFFFFFFFFFFFFFFFFFFFFFFFFFFFE00FB
:100510007FFFFFFFFFFFFFFE00077FFFFFFFFFFFE3
:10052000FFFFFFFFFFFE007FFFFFFFFFFFFFFFFF5B
:10053000FFFFFFFFFFFFFFFFFFFFFFFFFFFFFFFFCB
:10054000FFFFFF0E5208003E3E0A0E0E003E3E1A0E
:100550003E2E003E3E2A22002E2E3A3A002E2E3A01
:100560003A000000003E3E0A3E3E00000000023E0F
:100570003E02003E3E223E3E000000002E2E3A3A51
:1005800000023E3E02003E3E0A3E3E003E3E1A3E15
:100590002E00023E3E0200005620F06206EEEEEE15
:1005A000EE8E8E8EEEFEFEFE1CE1FCFEFE1E0E0E9C
:1005B000EEFEFEFE1CE1FCFEFE1E0E0EEEFEFEFE3C
:1005C0001CE1FCFEFEDECECECE0E0E000E0EEEFECA
:1005D000FEFE1E0E0E0EE0FCFEFE1E0E0EEEFEFEDB
:1005E000FE1CE0FEFEFE8E8E8EFEFEFE1C01030F44
:1005F00003383F3F3F07038FBFBFBFBD8098BFBFDA
:10060000BFBFB8B8383F3F9F8798BFBFBFBFB8389C
:1006100038BFBF9F87B8BFBFBF878101018180807E
:100620008080B8BFBF3F87808080183FBFBFBFB802
:100630003838BFBF9F87B8BFBFBF0703030383C35B
:10064000C1C0E0E0F0FCFFFEFCF8F8F8FC18C1FBCC
:10065000FBFBFBE3E3E3FB7F3F3FC7F8FFFF7F7359
:100660007373730303387F7F7F7773F3F3F3E303CD
:10067000C1F8FFFF3F0703030303C3F8FFFF3F0772
:10068000C0F8FFFF3FC7F8FFFF7F77737373030363
:100690000000C0C0FFFFFFFFFFFFFFFFFFFFFFFFE6
:1006A000FFFFE0CE8F0F0F0100030F8F0F0F00062B
:1006B0000F0F0F0F0E0E0E0E000C0E0E0E0E0E0E66
:1006C0000E0F0F0701060F8F0F0F0E0E0E0E0006F6
:1006D0000F0F0F0F0E0E0F0F0701060F8F0F0F0ECC
:1006E0000E0E0E00000000F8FFFFFFFFFFFFFFFFF0
:1006F000FFFF171D000000000000001EBCC080802E
:1007000080C0BC1E00000000000000C0404040400F
:10071000303047495F5747575F4947303040404086
:1007200040C0FF00DF44DF00DF51DF00DF51510038
:10073000DF10DF00D7555D00FF1F101711111017D4
:100740001417101714141017141710151517101F5D
:1007500005082020240000050800002400000508EA
:10076000FCFCFC000005080000240404050820200F
:100770002404040508E0E0E7000005082424240020
:1007800000050804042420200508FF3C00003F0564
:100790000800003C00006D08010101010101030790
:1007A0000F0F1F1F0F1707270707371F27091F3FA7
:1007B0003F3F3F3F1F0F0F1F1F3F3F3F1F0F3F3F59
:1007C0005F7F3F7F7F7F3F1F1F0F0F2F3F0723015B
:1007D000270727060401030707070B0F0F0F0F0F4B
:1007E0000F4F7F3F3F1F1F1F0F0F1F2F0F2F0F3F59
:1007F0000F0F07090F0F1F1F0B07070B0901010040
:1008000000000000008008F6DDF6DDF6DDF6DDF61E
:10081000FDF6FDF6FDF6FDF6DDF6DD76DDF6DDF640
:10082000FDF6FDF6FDFEFDFEFDFEFDFEFDFEFDF608
:10083000FDFEFDFEFDFEFFFEFFFEFFFEFFFEFFFED6
:10084000FFFEFDFEFDFEFFFEFFFEFFFEFFFEFDF6CE
:10085000FDF6FDF6FDF6FDF6DDF6DDF6DDF6FDF660
:10086000FDF6FDF6FDF6FDF6FDF6FDF6DDF6DD76B0
:10087000DDF6FDF6FDF6FDFEFDFEFDFEFDFEFDFED8
:10088000FDF6FDF6FDF6DD0000000000000060F062
:10089000E04000000000000000087CFCF870000050
:1008A00000C08000001C3E7FFF1F0E000080C000C3
:1008B000000E1FFF7F3E1C000000C00000000E1F46
:1008C0001F0F000000C080000000010303010006AC
:1008D0001000000000000000006040000000000068
:1008E0000000000008787000000000000000000018
:1008F0001C3E1F0E00000000000000000E1F3E1CEA
:100900000000000000000000000E0F0000000000CA
:100910000000000000010100001008003E3E161615
:100920003E16163E3E3E00000000000D08003E3E12
:1009300026263E26263E3E0000000520E7E0A74F83
:100940001FFFFFAA5500FFFFAA55003F3F2A1500D1
:100950001720F006F6E6F6F6F6F6F6E6F6F006F6F8
:1009600086D686D686D686D686FF00FFFFFFF3C0E2
:10097000C0F3FFFFFF00FF20342034203420342058
:10098000FF00FFFFFFFFFFFFFFFFFFFF00FF084D1E
:10099000084D084D084D080F00FFFFFFFFFFFFFF48
:1009A000FFFFFF00FF82D382D382D382D3821D1048
:1009B00000FEFE06767676067676760676767606FD
:1009C00076767606FEFE00AA54AA54AA00007F7F1F
:1009D0000077777700777777007777770077777783
:1009E000007F7F002A552A552A0007FFFFFFFFFFDF
:1009F000FFFFFFFFFFFFFFFFFFFFFFFFFFFF07FFFF
:100A0000FFFFFFFFFFFFFFFFFFFFFFFFFFFFFFFFF6
:100A1000FFFFFFFFFFFFFFFFFFFFFFFFFFFFFFFFE6
:100A2000FFFFFFFFFFFFFFFFFF151800020202E2BA
:100A3000E20202E2E20202E2E2020202000000003E
:100A40000000000038380000383800003838000056
:100A5000000000000000000000E7E70000E7E700FA
:100A600000E7E700000000000000F8FCFEFFFFFFC9
:100A7000FFFFFFFFFFFFFFFFFFFFFFFFFEFCF80F81
:100A80000F0F0F0F0F0F0F0F0F0F0F0F0F0F0F0F76
:100A90000F0F0F0F151000E8EC2E2EEE2E2EEE2E5F
:100AA0002EEE2E2EECEA044AA44800000F0F09098E
:100AB0000F09090F09090F09090F0F00050A0500A1
:100AC000FFFFFFFFFFFFFFFFFFFFFFFFFFFFFFFF36
:100AD000FFFFFF00F3FFFFFFFFFFFFFFFFFFFFFF31
:100AE000FFFFFFFFFFFFFFFE0F0F0F0F0F0F0F0F97
:100AF0000F0F0F0F0F0F0F0F0F0F0F0F141800FA1C
:100B0000FA9AFA9AFA9AFA9AFAFAFAFA00AA52AA07
:100B1000000000A1ADADADADADADAD0DAD2DAD0DD8
:100B2000FC0055A45400000F090F090F090F0F0016
:100B30000A050A000F00050A050000000000003E3B
:100B40005B4F5B3E3E6B4F6B3E1C3E7C3E1C183C3D
:100B50007E3C181C577D571C1C5E7F5E1C00183C99
:100B60001800FFE7C3E7FF0018241800FFE7DBE7E2
:100B7000FF30483A060E2629792926407F050507C9
:100B8000407F05253F5A3CE73C5A7F3E1C1C080825
:100B90001C1C3E7F14227F22145F5F005F5F0609EA
:100BA0007F017F006689956A606060606094A2FF43
:100BB000A29408047E040810207E201008082A1C35
:100BC00008081C2A08081E101010100C1E0C1E0C01
:100BD00030383E3830060E3E0E06000000000000A1
:100BE000005F00000007000700147F147F14242A10
:100BF0007F2A1223130864623649562050000807E2
:100C00000300001C2241000041221C002A1C7F1C02
:100C10002A08083E08080080703000080808080804
:100C2000000060600020100804023E5149453E006B
:100C3000427F400072494949462141494D331814C9
:100C4000127F1027454545393C4A49493141211118
:100C500009073649494936464949291E000014000A
:100C6000000040340000000814224114141414142D
:100C7000004122140802015909063E415D594E7C8B
:100C80001211127C7F494949363E414141227F4140
:100C900041413E7F494949417F090909013E41419E
:100CA00051737F0808087F00417F41002040413F89
:100CB000017F081422417F404040407F021C027F98
:100CC0007F0408107F3E4141413E7F090909063EED
:100CD0004151215E7F0919294626494949320301BC
:100CE0007F01033F4040403F1F2040201F3F4038CE
:100CF000403F631408146303047804036159494DA9
:100D000043007F4141410204081020004141417FDE
:100D10000402010204404040404000030708002054
:100D2000545478407F284444383844444428384454
:100D300044287F385454541800087E090218A4A48B
:100D40009C787F0804047800447D40002040403DAA
:100D5000007F1028440000417F40007C0478047824
:100D60007C080404783844444438FC1824241818B7
:100D7000242418FC7C080404084854545424040413
:100D80003F44243C4040207C1C2040201C3C403000
:100D9000403C44281028444C9090907C4464544C2F
:100DA000440008364100000077000000413608008A
:100DB00002010204023C2623263C1EA1A161123A34
:100DC0004040207A38545455592155557941215481
:100DD000547841215554784020545579400C1E5286
:100DE000721239555555593954545459395554542A
:100DF000580000457C410002457D420001457C4091
:100E0000F0292429F0F0282528F07C5455450020AD
:100E100054547C547C0A097F49324949493232484A
:100E2000484832324A4848303A4141217A3A4240B1
:100E30002078009DA0A07D39444444393D40404085
:100E40003D3C24FF2424487E4943662B2FFC2F2B56
:100E5000FF0929F620C0887E0903205454794100F7
:100E600000447D413048484A32384040227A007A76
:100E70000A0A727D0D19317D2629292F2826292954
:100E8000292630484D402038080808080808080876
:100E9000382F10C8ACBA2F102834FA00007B00009D
:100EA00008142A142222142A14089500220095AA54
:100EB000005500AAAA55AA55AA000000FF0010106C
:100EC00010FF00141414FF001010FF00FF1010F0AA
:100ED00010F0141414FC001414F700FF0000FF00BD
:100EE000FF1414F404FC141417101F10101F101F0B
:100EF0001414141F00101010F0000000001F101038
:100F000010101F10101010F010000000FF10101033
:100F1000101010101010FF10000000FF140000FF50
:100F200000FF00001F10170000FC04F41414171039
:100F3000171414F404F40000FF00F714141414142C
:100F40001414F700F7141414171410101F101F14A2
:100F50001414F4141010F010F000001F101F000003
:100F6000001F14000000FC140000F010F01010FF2F
:100F700010FF141414FF141010101F00000000F0D4
:100F800010FFFFFFFFFFF0F0F0F0F0FFFFFF0000A9
:100F9000000000FFFF0F0F0F0F0F38444438447C50
:100FA0002A2A3E147E02020606027E027E02635553
:100FB0004941633844443C04407E201E2006027EA2
:100FC000020299A5E7A5991C2A492A1C4C720172B4
:100FD0004C304A4D4D303048784830BC625A463D1E
:100FE0003E494949007E0101017E2A2A2A2A2A44D3
:100FF000445F444440514A444040444A5140000008
:10100000FF0103E080FF000008086B6B0836123612
:101010002436060F090F06000018180000001010F3
:10102000003040FF0101001F01011E00191D1712B1
:10103000003C3C3C3C0000000000080B00020202A7
:101040000100090400000102020000052400100153
:1010500005240101010424020605240600010705F8
:10106000810310004009040100020A000000070586
:101070000202400000070583024000000403090447
:1010800012010002EF0201404123368000010102FB
:10109000030141726475696E6F204C4C43004172CC
:1010A0006475626F79004A2B11241FBECFEFDAE01E
:1010B000DEBFCDBF12E0A0E0B1E0E0E3F3E602C0A6
:1010C00005900D92AE30B107D9F726E0AEE0B2E060
:1010D00001C01D92AF3BB207E1F718E0C4E5D8E0CC
:1010E00004C02197FE010E946A30C335D107C9F7B9
:1010F0000E9469170C9496310C940000CF92DF92F5
:10110000EF92FF920F931F93CF93DF936C017A01BD
:101110008B01C0E0D0E0CE15DF0581F0D8016D91E4
:101120008D01D601ED91FC910190F081E02DC60179
:101130000995892B11F02196EECF7E01C701DF9131
:10114000CF911F910F91FF90EF90DF90CF90089576
:1011500080912602E0912402F0912502882349F033
:10116000CF01029690932502809324028591949159
:101170000895CF01029690932502809324028081E6
:10118000918108958091100208950895089580E056
:1011900090E008950E949131E1E7F0E080818D7F39
:1011A00080831092910046984798109211020895FA
:1011B000CF92DF92EF92FF920F931F93CF93DF9323
:1011C0000E94A808811520E8920751F4DF91CF9181
:1011D0001F910F91FF90EF90DF90CF900C94CC086F
:1011E00021E020931102813020E8920751F4809190
:1011F00022029091230290932502809324020E9460
:10120000A80897FD05C020910E02222309F440C0D2
:1012100020910F0221113CC021E020931802EC0123
:10122000DF77209769F481E08093190246983FE9BF
:10123000C32E3FE0D32EE12CF12CCAEFD0E014C036
:101240008E0120E030E060E472E48FE090E0A901DC
:1012500098010E94B32C69017A0181E0C81AD10873
:10126000E108F10810921902E0912706F091280692
:101270000995811103C081E08093190280911802C1
:10128000882309F43FC08091190281113BC003C03B
:1012900010921802C4CF469935C0479A0E94A808F8
:1012A000009771F09C01DE010E94072DDC01CB014B
:1012B00029E0B595A795979587952A95D1F703C00D
:1012C0008FEF9FEFDC01109290002AE020939100B5
:1012D000D0929900C092980080931A0290931B02BA
:1012E000A0931C02B0931D028091710082608093D4
:1012F0007100DF91CF911F910F91FF90EF90DF90E0
:10130000CF9008954798CACF1F920F920FB60F92B1
:1013100011242F933F934F935F936F937F938F93FA
:101320009F93AF93BF93EF93FF9380911A02909195
:101330001B02A0911C02B0911D02892B8A2B8B2BC2
:1013400081F18091190281110BC098B180E4892745
:1013500088B980911802882319F088B1805888B91B
:1013600080911A0290911B02A0911C02B0911D0263
:10137000181619061A061B06B4F480911A029091E9
:101380001B02A0911C02B0911D020197A109B10995
:1013900080931A0290931B02A0931C02B0931D022B
:1013A00002C00E94D808FF91EF91BF91AF919F9129
:1013B0008F917F916F915F914F913F912F910F90FE
:1013C0000FBE0F901F9018959C01E1E7F0E090810F
:1013D0009D7F908381E080932602309325022093A5
:1013E000240230932302209322020C94D8084F92B7
:1013F0005F926F927F928F929F92AF92BF92CF92A5
:10140000DF92EF92FF920F931F93CF93DF9300D061
:1014100000D0CDB7DEB7DC0139012C2DA02EB12CC8
:10142000C5018A0F9B1F181619060CF0AEC1A03813
:10143000B1050CF0AAC1FB01EE0DF11D1E161F0631
:101440000CF0A3C1603471050CF09FC1411551052A
:1014500009F49BC1362F3770F32EFB0177FD3796C9
:1014600033E0F595E7953A95E1F73E2F77FF04C015
:10147000FF2011F03FEF3E0FB7FF05C0EE27FF271B
:10148000EA1BFB0B02C0E0E0F0E0803891051CF0A5
:1014900090E89A1B01C0902F9E1B632F032E000C17
:1014A000770B3F3F1CF4162F109501C010E0DD2490
:1014B000D3948E2D877009F4D12CE694E694E694AB
:1014C000ED0C6E0D711D693071051CF088E0E82E81
:1014D000E31AE11A310F60E83603A00DB11D1124A3
:1014E000AE0FBF1F019FE00DF11D11244E0F5F1FB6
:1014F00061E070E04B010F2C02C0880C991C0A942B
:10150000E2F7233009F4FFC0B8F4213009F4B3C086
:10151000223009F03AC18FEF889D8001899D100D1E
:101520001124009510951A8309832A81FD01E95D34
:10153000FD4F2F01E30E29C02A3FD1F12B3F09F0C7
:1015400024C1FD01E95DFD4F6F01E30E82C084916E
:10155000889D6001899DD00C1124DC82CB8237FDEF
:1015600005C0DB018C918023C82ACC92F11013C0F6
:1015700031966F5F7F4F8E2F841B891740F33F5F3B
:101580004A0D5B1DB0E84B0E511C3E1509F4FDC021
:10159000B201FA01F0CF37305CF76B01B0E8CB0E47
:1015A000D11CD6018C9182237C8087298C93E0CF3B
:1015B000FD01E95DFD4F6F01E30E3E1509F4E5C045
:1015C0008601FA018E2F841B8917F0F48491889D7F
:1015D000B001899D700D11247C836B8337FD04C09D
:1015E000D8018C91682B6C93FF2051F0373044F474
:1015F000B80160587F4FDB012C918C81822B8C933A
:1016000031960F5F1F4FDECF3F5F4A0D5B1DB0E885
:10161000CB0ED11CD2CF8491889D8001899D100D65
:1016200011241C830B8337FD05C00095DB018C91D1
:1016300008230C93F11013C031966F5F7F4F8E2FEC
:10164000841B891740F33F5F4A0D5B1DB0E8CB0E4A
:10165000D11C3E1509F499C0B601FA01F0CF37301C
:101660005CF78B0100581F4F8C818095D8012C911D
:1016700082238C93E1CFB3016E0F7F1FA95DBD4F15
:10168000E30E3E1509F481C08D01C12CD12CC91681
:1016900090F5FB01EC0DFD1DE491E89D3001E99D05
:1016A000700C1124609470947A826982FA01EC0DB6
:1016B000FD1DE491E89D2001E99D500C11245C8200
:1016C0004B8237FD05C0F8018081682246284082A0
:1016D000FF2059F037304CF4F801E058FF4F2081DB
:1016E0008A8182232C81822B8083FFEFCF1ADF0A2D
:1016F0000F5F1F4FCCCF3F5F4A0D5B1D6A0D7B1DF7
:10170000A058BF4FBECFC92ED12CE40FF51FA95D45
:10171000BD4F00E810E00C191D09AC18BD08A5016B
:10172000440F551F792F2E2D792ECF93DF93ED0186
:10173000EF96EF962296A590C590FF2059F0A89CB1
:101740005001C89C600137302CF4E880D094ED2023
:10175000EB28E99233233AF0EC90C094EC20EA288D
:10176000ED920C94B40B11967A9529F72A9551F0C5
:10177000772D33951124E40FF11DA00FB11DC00F7B
:10178000D11DD9CFDF91CF9111240F900F900F90E1
:101790000F90DF91CF911F910F91FF90EF90DF900D
:1017A000CF90BF90AF909F908F907F906F905F9001
:1017B0004F900895CF92DF92EF92FF920F931F9375
:1017C000CF93DF93EC01F22E98019C2D411551052A
:1017D00009F440C0FA0104913196E4914E5F5F4FE5
:1017E000F11002C0EE2049F1A1E0B0E08E2F877029
:1017F00011F4A0E0B0E08E2F8695869586956D0158
:10180000C80ED11C0C9DD0010D9DB00D112493303C
:1018100019F4AA0FBB1F0AC02115310539F0EA9E41
:101820006001EB9ED00C11242C0D3D1DFA9E600131
:10183000FB9ED00C11244C0D5D1D9F3F31F42115F2
:10184000310511F091E001C092E0C92EEE2ECE01DB
:101850000E94F709DF91CF911F910F91FF90EF90B8
:10186000DF90CF9008958F929F92AF92BF92CF92C8
:10187000EF920F931F93CF93DF935C01EC014C0128
:1018800084E2880E911C8E898823B1F02E85263043
:1018900098F4F501668160518C89680F70E09A892F
:1018A0008481890FCC24C394E22E07E818E04FEC22
:1018B00058E090E00E94DA0B2C96C815D90519F76C
:1018C000DF91CF911F910F91EF90CF90BF90AF908C
:1018D0009F908F9008952D9A0895BC0180E090E02C
:1018E0000C94E5168FB18095807F669B88601C9B69
:1018F0008460089581E083BF889513BE08950C9499
:101900009D2C109210023E983F9808953E9A3F9A5F
:1019100081E0809310020895FC01E40FF11DAF01F6
:101920001E161F06C4F580389105ACF597FF02C05E
:1019300080E090E04138510514F040E850E0481B49
:10194000FB0177FD379633E0F595E7953A95E1F79A
:10195000F695FE2FEE27F795E795E80FF91FE95D5D
:10196000FD4F6770772781E090E001C0880F6A958E
:10197000EAF7382F222341F0213069F4415058F022
:101980008081832B8193FACF8095415020F0908104
:1019900098239193FACF08958F929F92AF92BF921E
:1019A000CF92EF92FF920F931F93CF93DF93F82E76
:1019B000E0912906F0912A0626E3829FC0011124B6
:1019C0004C012EE2820E911C8E0E9F1EE80FF91F15
:1019D000A6A482A9A80EC0A984A9C80FD0E0B12CE2
:1019E000CC24C394E12C8A0120E0AB01BE01C501E7
:1019F0000E94DA0BFC1429F1FC14B0F082E0F8121A
:101A000032C0BE016350710920E043E0C5010F966A
:101A10000E94A012BE016250710920E042E0C5019F
:101A200041960E94A0121FC0BE016150710960342E
:101A30007105C8F420E043E0C5010C960E948C0CAF
:101A400012C0229703E010E027E0A20EB11CC501EE
:101A5000801B910B0150110931F020E042E0BE01E2
:101A60000E94A012F4CFC401DF91CF911F910F917A
:101A7000FF90EF90CF90BF90AF909F908F900C947D
:101A8000330C80389105B8F460347105A0F490E10E
:101A900021E061FD24E060FD220F62FD2295687F58
:101AA000969FD0011124A80FA95DBD4F8C91822B68
:101AB00040FF82278C9308952F923F924F925F921E
:101AC0006F927F928F929F92AF92BF92CF92DF924E
:101AD000EF92FF920F931F93CF93DF93CDB7DEB7B3
:101AE00028970FB6F894DEBF0FBECDBF60387105E2
:101AF0000CF072C0403451050CF06EC0CB0135E0E3
:101B0000C39E800D911D1124181619060CF064C097
:101B1000AC2CB12CCA01E8E0CE9E800D911D1124A1
:101B2000181619060CF058C0EA8209835E834D83AB
:101B3000F5E02F9F9001112478876F83C901865C9F
:101B4000944F3C01512CF3014490F5E05F1201C029
:101B5000412C0D811E8188E0282E8F8198858A0D69
:101B60009B1D9C838B8340FE02C0398001C03A805C
:101B7000311004C09A81E9819E17D9F0EF80F88472
:101B80006801CA0CDB1C8B819C81E816F90689F080
:101B900048018C149D0449F0432DB401C7010E94F3
:101BA000410D9FEF891A990AF4CFEFEFEE1AFE0A62
:101BB000EACF46942A940A0D1B1D2110D4CF5394CA
:101BC0008F8198858A0D9B1D98878F83F3013196AD
:101BD0003F01F6E05F12B7CF28960FB6F894DEBF4C
:101BE0000FBECDBFDF91CF911F910F91FF90EF906E
:101BF000DF90CF90BF90AF909F908F907F906F902D
:101C00005F904F903F902F900895CF92EF920F9357
:101C1000CF93DF93EC016A3069F42D8989899A8921
:101C200038E0239F800D911D11249A8B898B188A8F
:101C30001F862EC06D3061F1262F49895A896F8524
:101C40007889CD88EC880B890E945C0D2D89422F04
:101C500050E08F85988936E0239F800D911D1124D7
:101C6000988B8F872E89222399F06AEF6403900165
:101C7000659F300D112420583F4F2817390744F431
:101C8000E881F9810190F081E02D6AE0CE010995AB
:101C900081E090E0DF91CF910F91EF90CF90089588
:101CA000CF92DF92EF92FF920F931F93CF93DF9328
:101CB000D82EAB01E0912906F0912A0686E3D89E42
:101CC0009001112479018EE2E80EF11CEE0EFF1E48
:101CD000E20FF31F00A984A9080F10E0C6A582A98E
:101CE000C80FD0E0B801CE010E94FE1283E0D812E6
:101CF00022C0B801625071096E0184E1C80ED11C86
:101D00006034710528F420E046E0C6010E948C0C86
:101D10000150110940E0B801C6010E94410D40E0A8
:101D2000B801CE0147960E94410D40E0B801CE01B6
:101D300049960E94410DC701DF91CF911F910F91EC
:101D4000FF90EF90DF90CF900C94330CDF92EF92E6
:101D5000FF920F931F93CF93DF9380912906909169
:101D60002A06FC01E357FD4F2081318122303105E5
:101D700011F43C9603C0FC01E157FD4FC081D181B5
:101D8000C436D10520F48CE6E1E1DE2E03C086E600
:101D900077E1D72EE82EF12C87010F5F1F4F21E04E
:101DA0004BE065E370E0C8010E94A0120F5F1F4F77
:101DB0000C371105A4F300E02DE04D2D64E370E035
:101DC000C7010E94C912CA30D10558F4CC0FDD1FDB
:101DD000CE59DE4F4881598167E370E0C70106960E
:101DE00056C097012D5F3F4F8701075F1F4FCE0100
:101DF000C436D105D8F46AE070E00E944230EC01AC
:101E0000660F771FFB01EE59FE4F4081518167E35A
:101E100070E0C9010E94FE12CC0FDD1FCE59DE4FCB
:101E20004881598167E370E0C80131C064E670E021
:101E30000E944230FB01EE0FFF1FEE59FE4F408122
:101E4000518167E370E0C9010E94FE122AE030E090
:101E5000CE01B9010E944230EC01CB01B9010E94D0
:101E60004230FC01EE0FFF1FEE59FE4F40815181C1
:101E700067E370E0C8010E94FE12CC0FDD1FCE594F
:101E8000DE4F4881598167E370E0C7010F96DF910B
:101E9000CF911F910F91FF90EF90DF900C94FE1265
:101EA00040EC5AE06CEF7AE080E00E94CC0C4AE60D
:101EB0005AE064E97AE081E00E94CC0C4AEE59E0F5
:101EC00069E27AE082E00E94CC0C6EEA79E083E07D
:101ED0000E94500E60E579E084E00E94500E4AE3D3
:101EE00059E063E270E080E090E00E94FE124BE275
:101EF00059E06AE370E086E190E00E94FE1249E159
:101F000059E06AE370E081E490E00C94FE1281E015
:101F10000E94141345E058E060E070E080E090E03B
:101F20000E94FE1246E957E068E370E080E090E02E
:101F30000C94FE122F923F924F925F926F927F927B
:101F40008F929F92AF92BF92CF92DF92EF92FF92C9
:101F50000F931F93CF93DF93CDB7DEB72C970FB6B8
:101F6000F894DEBF0FBECDBF262E4B87322E21E068
:101F700023252C87862E912C482E512C042F10E0DF
:101F8000440F4F5FB401601B710BC2010E94A0128D
:101F900081E090E05C01A01AB10A88279927801B94
:101FA000910B6C01CC0CDD1CE12CF12C66246394AC
:101FB000712C5E824D829A868986E016F1060CF0BD
:101FC00046C0B7FC07C00150110932E0C30ED11C56
:101FD000AC0CBD1C8FEFE81AF80A92E0690E711C78
:101FE000A60CB71C802F880F8F5F89832C85482F04
:101FF000C401801B910B9C838B83BC018D819E81CE
:102000008E0D9F1D0E94A01229853A852E193F0929
:1020100038872F832C85462D6F817885C201800FEC
:10202000911F0E94A0122C8549816B817C818D813A
:102030009E818E199F090E94A0122C85462D6F81CA
:102040007885C201801B910B0E94A012B6CF3B8500
:102050003F5F832F90E09E838D8381E090E07C0141
:102060002D813E81E21AF30A39017194619471085D
:10207000660C771CB901680D791D432DC2010E94C1
:10208000410DB4018D819E81681B790B432DC201E6
:102090000E94410D432DB4018D819E81840D951DBB
:1020A0000E94410D432DB401C2012D813E81821B4E
:1020B000930B0E94410D00E010E081E090E09C83D2
:1020C0008B83222D30E038872F838D819E810817E6
:1020D00019070CF062C0F7FC08C001979E838D833E
:1020E00092E0690E711CE60CF71C0F5F1F4F2B81ED
:1020F0003C812E5F3F4F3C832B83E20EF31EC801D1
:10210000840D951D9A838983432DCD80DE80C80C74
:10211000D91CB6010E94410D5201A01AB10A432DEB
:10212000B601C5010E94410D432D64012D813E8100
:10213000C21AD30AB60189819A810E94410D432DAA
:10214000B601C5010E94410DCF80D884C00ED11EBA
:10215000432DB601AD80BE80A40CB51CC5010E9404
:10216000410D432DB60162018D819E81C81AD90AA5
:10217000C6010E94410D2F813885201B310B3A8307
:102180002983432DB901C5010E94410D432D698169
:102190007A81C6010E94410D98CF2C960FB6F89413
:1021A000DEBF0FBECDBFDF91CF911F910F91FF908A
:1021B000EF90DF90CF90BF90AF909F908F907F90E7
:1021C0006F905F904F903F902F900895FC01E15FDA
:1021D000FE4F108231972081FC0180E041E050E009
:1021E000821788F4158214821782168251874087DD
:1021F0001386128610AA12AA11AA14AA13AA15AA43
:10220000168A12A216A68F5FF696853049F70895B2
:10221000FC01808191810196918380836481758125
:102220000E944230892B41F4828190E001966381C3
:1022300070E00E94563082830895FF920F931F939F
:10224000CF93DF93EC01F62E08811981C8010E941B
:102250009D2CF81621F06F2DC8010E94A52CCE01EF
:10226000DF91CF911F910F91FF900895209121024E
:10227000211103C08FEF9FEF08955FB7F89422E01C
:102280002093E9002091F20030E01216130614F4B6
:1022900021E030E0422FFC0184E6415038F02898DC
:1022A000809320029091F1009193F7CF2115310591
:1022B00021F08091F200882319F05FBFC9010895D1
:1022C0008BE68093E800F9CF2FB7F89483E08093F2
:1022D000E9009091E800892F807295FF04C09091E9
:1022E000F20080E4891B2FBF0895CF93DF931F92E4
:1022F000CDB7DEB76983DC01ED91FC910280F381FB
:10230000E02D41E050E0BE016F5F7F4F09950F90D7
:10231000DF91CF91089583E08093E9008091F200EE
:10232000882319F08AE38093E80008950E946411DD
:1023300090E00895CF93DF931F92CDB7DEB7FC01F5
:102340008485958597FD05C02FEF3FEF358724875E
:102350000BC0CE0101960E943611019719F48981B4
:1023600090E002C08FEF9FEF0F90DF91CF91089523
:102370000F931F93CF93DF931F92CDB7DEB78C01DE
:10238000FC018485958597FF0EC0CE0101960E94C1
:102390003611019719F4898190E002C08FEF9FEF09
:1023A000F80195878487F801848595850F90DF91E2
:1023B000CF911F910F910895FC018485958597FD1C
:1023C0000BC09FB7F89482E08093E9008091F200FF
:1023D0009FBF90E0019608959FB7F89482E08093A4
:1023E000E9008091F2009FBF90E008958F929F9244
:1023F000AF92BF92CF92DF92EF92FF920F931F9313
:10240000CF93DF936C017B018A01809108018823BF
:1024100009F45CC080912102882309F457C080919F
:102420001F0280FF05C08091E00082608093E00081
:10243000E801B12C8AEFA82E93E0892E2AE3922E90
:10244000209711F4BB20D9F10E94641181110AC0B8
:10245000AA94AA20D9F161E070E080E090E00E94A7
:10246000E516EECF282F30E0C217D3070CF48C2FDF
:102470009FB7F8948092E9002091E80025FF1DC0E5
:10248000282F30E0C21BD30BF701815020F041917F
:102490004093F100FACFE20EF31EBB2019F09092A8
:1024A000E8000AC08091E80085FD07C09092E8002E
:1024B000BB24B394209709F0B12C9FBFC1CF5D9886
:1024C00084E680931E021016110644F081E090E02D
:1024D000F6019383828380E090E001C0C801DF9120
:1024E000CF911F910F91FF90EF90DF90CF90BF9011
:1024F000AF909F908F9008950F931F93CF93DF938A
:1025000000D0CDB7DEB78C01FC01608180E993E09B
:102510009A838983CE0101960E941D11F801618181
:1025200081E993E09A838983CE0101960E941D116F
:10253000C8010F900F90DF91CF911F910F910895D7
:10254000DF92EF92FF920F931F93CF93DF937C0163
:10255000D22E8B01040F111DEB0177FF02C0C0E0EA
:10256000D0E0C8010134110514F080E490E0C817F0
:10257000D9073CF44D2DBE01C7010E94410D2196A3
:10258000F0CFDF91CF911F910F91FF90EF90DF90EF
:102590000895DF92EF92FF920F931F93CF93DF93F3
:1025A000EC017B01D42E122F6034710520F4202F12
:1025B000CE010E948C0CB701610F711D6150710931
:1025C0006034710528F4202F4D2DCE010E948C0C13
:1025D000202F412FB701CE010E94A012CE018D0DF8
:1025E000911D202F412FB7010197DF91CF911F91AE
:1025F0000F91FF90EF90DF900C94A012CF92EF928A
:102600000F934115510561F0FA0104913196E49060
:102610004E5F5F4F22E0C22E20E030E00E94F709BB
:102620000F91EF90CF900895E7E2F2E081118FEFE4
:10263000002481938193819381930394D1F708952A
:10264000E7E2F2E0A0E0B8E000800EBC8111012CCE
:102650001197A0FDFDCF0192B9F70DB40895009731
:1026600069F0FC0101900020E9F73197AF01481BA8
:10267000590BBC018BE296E00C947E0880E090E060
:10268000089520913506282329F490913406982343
:1026900081E009F480E008959C01E1E7F0E0908199
:1026A0009D7F908310922602EEE9F6E0F0932502DA
:1026B000E0932402F0932302E093220231832083EB
:1026C0001382128280E090E8958384830C94D8086A
:1026D0008091460681110DC082E08093420684E01D
:1026E00080934306109245061092440681E0809341
:1026F000460682E496E008954091B8065091B906E6
:102700002091B6063091B70642175307B4F4909162
:10271000E8009570E1F39091E80092FD19C0809374
:10272000F1008091B8069091B90601968F739927B0
:10273000892B19F48EEF8093E8008091B806909170
:10274000B90601969093B9068093B80681E0089582
:1027500080E00895DF92EF92FF920F931F93CF9343
:10276000DF93D82E8A017B01E40EF51EEB01CE1516
:10277000DF0571F0D7FE03C0FE01849101C088819E
:102780000E947C1321968111F2CF8FEF9FEF01C041
:10279000C801DF91CF911F910F91FF90EF90DF90D3
:1027A0000895615030F02091F100FC0120830196E2
:1027B000F8CF289884E68093200208953FB7F894D4
:1027C0008091B2069091B306A091B406B091B5067F
:1027D00026B5A89B05C02F3F19F00196A11DB11D7C
:1027E0003FBFBA2FA92F982F8827820F911DA11DB7
:1027F000B11DBC01CD0142E0660F771F881F991FF4
:102800004A95D1F708950F931F93CF93DF931F92AB
:10281000CDB7DEB782E0898342E450E06AE370E13D
:1028200080E80E94AA130E946813DC0112960D91A1
:102830001C9113970115110589F0D801ED91FC91B8
:102840000280F381E02DBE016F5F7F4FC8010995C3
:1028500097FD04C0F80100851185ECCF89810F90A8
:10286000DF91CF911F910F9108951F920F920FB694
:102870000F9211248F939F938091E1009091E1003A
:10288000937F9093E10083FF0FC01092E90091E0E5
:102890009093EB001092EC0092E39093ED00109275
:1028A000210298E09093F00082FF20C093E0909383
:1028B000E9009091F200992319F09AE39093E800CF
:1028C00090911E02992339F090911E02915090939D
:1028D0001E02992389F190912002992339F0909159
:1028E0002002915090932002992341F184FF10C05F
:1028F0008091E2008E7E81608093E2008091E10011
:102900008F7E8093E10080911F028E7E806111C0D6
:1029100080FF16C08091E2008E7E80618093E2008D
:102920008091E1008E7E8093E10080911F028E7E77
:10293000816080931F0204C05D9ACDCF289AD6CFC4
:102940009F918F910F900FBE0F901F9018951F921F
:102950000F920FB60F921124CF92DF92EF92FF9257
:102960000F931F932F933F934F935F936F937F9397
:102970008F939F93AF93BF93EF93FF93CF93DF9387
:10298000CDB7DEB76C97DEBFCDBF1092E900809166
:10299000E80083FFFBC168E0CE0145960E94D11399
:1029A00082EF8093E8008D8987FF05C09091E80051
:1029B00090FFFCCF03C09EEF9093E800982F907695
:1029C00009F0C6C09E894F89588D2F89F88C9111C6
:1029D0000CC0803829F48091B0068093F10002C0C9
:1029E0001092F1001092F10045C1913051F4811123
:1029F00041C14130510509F03DC18091B0068D7F44
:102A00000BC0933061F4811135C14130510509F09B
:102A100031C18091B00682608093B0062BC19530A1
:102A200049F48091E80080FFFCCF822F806880937A
:102A3000E30020C1963009F05EC00B8D1C8D22E0B2
:102A40001092E9001092B9061092B806F21232C044
:102A50001092B7061092B6060E94031499E0BE01C8
:102A60006F5F7F4FDB01E92F1D92EA95E9F79983AC
:102A7000FA8291E09E8390EA98879AEF9987209155
:102A8000B8063091B906275F3F4F3C832B838D8377
:102A90001092E9001092B9061092B8061093B7068A
:102AA0000093B60649E050E080E00E94AA130E941D
:102AB0000314E0C01093B7060093B6060E94681393
:102AC000DC0112960D911C9113970115110509F463
:102AD000BBC0D801ED91FC910480F581E02DBE01D1
:102AE0006B5E7F4FC8010995009709F0C7C0F801D8
:102AF00000851185EACF973009F445C1983021F45B
:102B000081E08093F100B6C0993009F0B3C08370C2
:102B100009F039C1E2EAF1E081E031E096E3208199
:102B2000211109C08EE78093EA001092EA008F8994
:102B3000809321029FC08093E9003093EB002191A4
:102B40002093EC009093ED008F5F873041F7EACF40
:102B50008B8D9C8D1092E9001092B9061092B806E8
:102B60009093B7068093B606898D811153C08E89E4
:102B70009D89913A49F4813209F005C147E050E05E
:102B800061E071E080E0BBC0913209F0FCC08332AB
:102B900069F48F89988DA0E0B0E08093090190934B
:102BA0000A01A0930B01B0930C0164C0803269F458
:102BB0008091E80082FFFCCF67E081E091E00E9415
:102BC000D1138BEF8093E80055C0823209F052C0D8
:102BD0008F8980930801EEEFFFE7859194918B3FF9
:102BE0009C4D19F0E0E0F8E002C0EEEFFAE08091D1
:102BF000010190910201A0910301B0910401803B79
:102C00009440A105B10509F09EC08091080180FFA4
:102C100079C099C00E946813FC01028113810115DB
:102C2000110509F4B0C0D801ED91FC910190F0813B
:102C3000E02DBE016B5E7F4FC801099581111AC05E
:102C4000F80100851185EBCFF1E0FF1609F44EC0C5
:102C5000F3E0FF1298C08F89882309F44AC08230BC
:102C600089F440E867E08EE990E10E940C2C88230B
:102C700009F489C08EEF8093E80088C01816190601
:102C8000CCF381C0813029F440E86BE082E990E127
:102C9000ECCF833009F077C00E946813DC011296F4
:102CA000ED90FC9013978E010F5F1F4F6801E114A8
:102CB000F10479F0D701ED91FC910680F781E02DC8
:102CC000B801C7010995080F111DF701E084F184CF
:102CD000EECFD8011C92F60101900020E9F7319760
:102CE000BF016C197D0940E0C601BFCF60E870E10B
:102CF00002C06CE770E1FB01449150E080E80E9463
:102D0000AA13B8CFEE3F2AE0F20751F080819181FB
:102D10008737A7E79A0721F09093FF0A8093FE0A6E
:102D200087E797E791838083809160008093BA065C
:102D30009BE088E10FB6F894A895809360000FBEE1
:102D40009093600097CF808191818737974709F0F2
:102D500091CFA895809160008861809360008091F8
:102D6000BA0680936000EE3FBAE0FB0739F080912D
:102D7000FE0A9091FF0A918380837CCF1092FF0A14
:102D80001092FE0A77CF81E28093EB006C960FB62B
:102D9000F894DEBF0FBECDBFDF91CF91FF91EF91D1
:102DA000BF91AF919F918F917F916F915F914F9163
:102DB0003F912F911F910F91FF90EF90DF90CF9057
:102DC0000F900FBE0F901F9018958F929F92AF9209
:102DD000BF92CF92DF92EF92FF926B017C010E9433
:102DE000DE134B015C01C114D104E104F104F1F0E4
:102DF0000E94DE13DC01CB0188199909AA09BB09DD
:102E0000883E9340A105B10570F321E0C21AD108B4
:102E1000E108F10888EE880E83E0981EA11CB11C21
:102E2000C114D104E104F10419F7DDCFFF90EF9054
:102E3000DF90CF90BF90AF909F908F9008951F929A
:102E40000F920FB60F9211242F933F938F939F935E
:102E5000AF93BF938091AC069091AD06A091AE0662
:102E6000B091AF063091B10623E0230F2D3720F447
:102E70000196A11DB11D05C026E8230F0296A11DD4
:102E8000B11D2093B1068093AC069093AD06A0933C
:102E9000AE06B093AF068091B2069091B306A091B2
:102EA000B406B091B5060196A11DB11D8093B2067E
:102EB0009093B306A093B406B093B506BF91AF91BB
:102EC0009F918F913F912F910F900FBE0F901F9068
:102ED0001895CF93DF93CDB7DEB72C970FB6F89444
:102EE000DEBF0FBECDBF789484B5826084BD84B54B
:102EF000816084BD85B5826085BD85B5816085BDF5
:102F000080916E00816080936E00109281008091AC
:102F10008100826080938100809181008160809334
:102F20008100809180008160809380008091910079
:102F300082608093910080919100816080939100E4
:102F4000809190008160809390008091C1008460A6
:102F50008093C1008091C10082608093C100809104
:102F6000C10081608093C1008091C3008160809323
:102F7000C3008091C00082608093C0008091C20035
:102F800081608093C20080917A00846080937A008F
:102F900080917A00826080937A0080917A008160CB
:102FA00080937A0080917A00806880937A001092F2
:102FB00021021092B00610921F028091D70081600A
:102FC0008093D70080EA8093D80089B5806189BD5D
:102FD00089B5826089BD09B400FEFDCF61E070E073
:102FE00080E090E00E94E5168091D8008F7C80619F
:102FF0008093D8008091E000807F8093E0008091F2
:10300000E1008E7E8093E1008DE08093E200559A8E
:10301000209A81EC80937C0085B1806F85B984B162
:10302000877E84B984B1876E84B95E9A5F988AB1CD
:10303000806D8AB9769A6E9881B3806F81BB8998CA
:1030400080B38D7080BB80E58CBD81E08DBD85E057
:1030500090E00E946D0C5F9A85E090E00E946D0CFC
:103060005E985C98EAE7F1E084918EBD00000DB4B3
:1030700007FEFDCF319601E0E738F007A9F75C9A2B
:1030800081E8809364008091650081608093650091
:1030900080E00E9420130E94720C87FF13C05C988E
:1030A00085EA8EBD00000DB407FEFDCF5C9A2E9818
:1030B0002F982D98809164008062809364000E9414
:1030C0007A0CFDCF02E010E00E94720C82FF42C039
:1030D0002D980E94720C8478843831F00E94720C12
:1030E0008471843191F519C00E946B0C88EC90E0DA
:1030F0000E946D0C2F981A8309836FEFCE01019601
:103100000E941D1184EF91E00E946D0C2F9A0E9485
:10311000720C84788438D9F3E1CF0E946B0C88EC70
:1031200090E00E946D0C2E981A83098360E0CE0116
:1031300001960E941D1184EF91E00E946D0C2E9A61
:103140000E94720C84718431D9F388EC90E00E9463
:103150006D0CBACF0E946B0C82E090E00E947F0C55
:10316000882319F00E94860C02C00E94810C81E025
:1031700090E00E947F0C182F1470912E81FF87C061
:1031800011112E9800EF1FEFE8E0EE2EF12C0E94B7
:10319000720C86FF05C02E9A2F9A0E946B0C77C086
:1031A000992029F00430110511F42E9A2F9881E00E
:1031B0000E942013980117FF04C022273327201BE9
:1031C000310B27703327C80117FD079673E09595DB
:1031D00087957A95E1F717FF05C00197A701421B74
:1031E000530B9A01AC015695542F44275795479598
:1031F000495D5D4F60E070E03701621A730A8F3FEE
:10320000AFEF9A074CF40196685A7F4F40585F4FD2
:10321000603B7105A1F720C05A01B4E9AB0EB11CA7
:103220006A01A0E0B0E08F3FEFEF9E0711F40C942D
:10323000B22AFD01E60FF71FE653FF4FE491F0E0DD
:103240002F01022E01C0440C0A94EAF7F60184888B
:103250004828448A0C94B22A80E00E9420138FE010
:1032600090E00E946D0C0F5F1F4F0931110509F0AE
:103270008ECF992011F02F9A2D9880E991E00E942D
:103280006D0C0E946B0C8BE296E00E94052B82E392
:1032900090E00E946D0C0E94720C8111F8CF80E1C9
:1032A00080933606809110028093000110920F02E5
:1032B00010920E0211E010930F028FE893E00E942B
:1032C0007F0C873479F40091290610912A0680E951
:1032D00093E00E947F0CF801E756FD4F90E0918348
:1032E00080830FC00E94860C1093000167E48FE872
:1032F00093E00E94A52C1A821982CE0101960E94A9
:103300007C12E0912906F0912A06AF01445C5E4FE1
:10331000DA018C9196E3DF01989FA00DB11D112475
:1033200027E030E09F963C932E939E972CE230E06E
:10333000D1963C932E93D09721E030E0D7963C93E2
:103340002E93D69761E0680FDF01969FA00DB11D07
:1033500011246DE170E09F967C936E939E9764E3D9
:1033600070E0D1967C936E93D097D7963C932E9332
:10337000D697A2E0A80F8F019A9F000D111D11246E
:10338000D8019F967C936E939E9768E270E0D196E9
:103390007C936E93D097D7963C932E93D69763E009
:1033A000680FDF01969FA00DB11D11246BE470E042
:1033B0009F967C936E939E9761E370E0D1967C9389
:1033C0006E93D097D7963C932E93D69764E0680F70
:1033D000DF01969FA00DB11D112469E670E09F9654
:1033E0007C936E939E976CE170E0D1967C936E9384
:1033F000D097D7963C932E93D6978B5FDA018C9318
:10340000E357FD4F318320838FB7F8944091AC068A
:103410005091AD066091AE067091AF068FBF80915E
:103420003706B42FB81B8B2F90913806992331F0B3
:10343000B0933906109238060C94A82A909136065B
:10344000B91738F48F5F891710F00C94A82A0C94E0
:10345000A62AFF24F394F092380640933706809111
:10346000320690913306019690933306809332068C
:1034700080913406809335060E94720C8093340646
:1034800080911702882309F489C0809113029091DA
:1034900014029C013695279500E510E0021B130BE2
:1034A0000E3011052CF001969093140280931302B4
:1034B00080E00E94141310923F06FF24F394F092D0
:1034C0003E0689E190E090933B0680933A06C8015E
:1034D000992790933D0680933C0681ED91E00E94F0
:1034E0002F1310923F06F0923E0682E290E09093F6
:1034F0003B0680933A068CE0800F90E090933D0667
:1035000080933C0680EE91E00E942F1310923F06BC
:10351000F0923E068FE190E090933B0680933A064E
:1035200080E2800F90E090933D0680933C068CEE05
:1035300091E00E942F1321E042E063E2600F88E1F6
:103540000E949A0FB8016E5D7F4F6034710530F4B0
:1035500021E043E087E190E00E948C0CB8016D5DB2
:103560007F4F41E087E190E00E94410DB8016C5D22
:103570007F4F6034710530F421E043E087E190E053
:103580000E948C0C88E00E944113882311F40C9453
:10359000A32A109217021092160206C180911602F9
:1035A000882309F43AC108E010E021E048E365E02F
:1035B00070E0C8010E94A0120F5F1F4F093711056C
:1035C000A1F700E02AE343E764E070E087E090E0E1
:1035D0000E94C91280910001882319F088EA91E0C5
:1035E00002C082EB91E021E020933F0610923E065C
:1035F0002AE130E030933B0620933A062DE030E09C
:1036000030933D0620933C060E942F13E09129063B
:10361000F0912A06E357FD4F80819181029719F4BA
:103620008DEB91E002C088EC91E0FF24F394F092DE
:103630003F0610923E060AE110E010933B0600930D
:103640003A0628E130E030933D0620933C060E9484
:103650002F13F0923F0610923E0610933B06009304
:103660003A0683E290E090933D0680933C068BEF10
:1036700091E00E942F13F0923F0610923E061093A5
:103680003B0600933A068EE290E090933D068093CD
:103690003C0681E092E00E942F1340911502EBE07E
:1036A0004E9FA0011124435F5F4FCC24C394EE24AE
:1036B000E39400E020E160E170E08BE296E00E949C
:1036C0005C0D88E00E944113882309F473C084EDE7
:1036D00094E00E94E40980911502813019F150F0C4
:1036E000823009F44FC0833011F00C94A32AF09279
:1036F00017025AC080910001F826F0920001FF20C5
:1037000019F00E94860C02C00E94810C6091100288
:1037100082E090E09A838983CE0101960E941D1178
:103720000C94A32AE0912906F0912A06DF01A35701
:10373000BD4F8D919C91119710921402109213021B
:10374000029729F403E010E00D931C933CC026E09F
:1037500030E02D933C93DF01AF55BD4F1D921C927D
:10376000168A178E10A211A212A213A214A215A2D9
:1037700016A217A210A612A611A6148AE657FD4F8C
:10378000108221C06FEF8FE893E00E94A52C0E9469
:10379000860CF0920001E0912906F0912A06E35789
:1037A000FD4F118210820FC010921402109213026A
:1037B0000C94A32A84E00E944113882341F08AEBF1
:1037C00094E00E94E409109216020C94A32A80E867
:1037D0000E944113882361F087E891E00E94E40988
:1037E00080911502882311F0815013C083E011C02D
:1037F00080E10E944113882311F40C94A32A87E8E6
:1038000091E00E94E4098091150290E00196837096
:103810009927809315020C94A32A209029063090B2
:103820002A06F101E357FD4F808191818230910595
:1038300009F444C030F4009771F00197E9F00C945A
:10384000A32A8330910509F4E3C38730910508F476
:10385000B8C00C94A32A1092160210921502D1013E
:10386000A756BD4F1D921C92109214021092130283
:1038700081E090E00C94C82780911302909114028B
:103880009C012F5F3F4F309314022093130288371F
:10389000910568F480E00E94141342EF56E060E165
:1038A00070E086E390E00E94FE120C94A32A10922E
:1038B000140210921302C1010C94BD2780911302CF
:1038C000909114028A34910528F401969093140281
:1038D0008093130200911302109114020931110513
:1038E00008F491C30E94870FB8016951710980E003
:1038F00090E00E94352E20E030E040E450E40E9449
:103900008D2D0E94882D6B017C01C80196958795AD
:1039100065E270E0681B790B80E090E00E94352E34
:10392000A70196010E942B2F9B01AC0160E070E083
:1039300080E291E40E94162D0E94FF2D062E000CBD
:10394000770B48E955E085E190E00E94FE120E9465
:10395000500F0E94A60E80913206909133066EE6BB
:1039600070E00E9442308634910588F407341105D6
:1039700070F0CC24C394E12C02EF14E020E044E486
:1039800055E061E370E084E190E00E94DA0B88E0AA
:103990000E944113882309F426C310921402109246
:1039A000130284ED94E00E94E409E0912906F0916D
:1039B0002A06E357FD4F43E050E0518340830C94C7
:1039C000A32A049709F4F5C30091290610912A0649
:1039D000F8018689980123573D4F3C832B83811141
:1039E000D4C586819781A284B3848A159B0509F08A
:1039F000C3C4158A108A118A128A138AD8010D90BD
:103A0000BC91A02DBE83AD83CD0166E070E00E9425
:103A10004230892B09F440C58D819E8168E170E0B8
:103A20000E94423080E090E00E94352E0E94982F44
:103A300020E030E040E451E40E94172D6B017C014E
:103A400020E030E0A9010E94262F20E030E040E095
:103A50005FE387FD4DC5C701B6010E94172D0E9487
:103A6000FF2DD80119967C936E93189716968D9119
:103A70009C9117970A965C969C938E935B97685FD0
:103A80007F4F5E967C936E935D979D961C929D975B
:103A90005F968D909D90AD90BC9092979396CD90AF
:103AA000DD90ED90FC909697A7019601C501B401B9
:103AB0000E94162D2B013C0120E030E0A9010E945C
:103AC000262F18160CF019C52AE037ED43E25CE307
:103AD000C301B2010E94262F18160CF018C581E010
:103AE000F80187A311A610A6A7019601C501B4018C
:103AF0000E94832D87FF15C520E030E040E05FE3A2
:103B0000C501B4010E94172DD8015F966D937D9376
:103B10008D939C939297D8019D968C919D97882325
:103B200069F058968C9158978F5F58968C93589758
:103B3000EAE0F0E05A96FC93EE935997D801599633
:103B40008D919C915A97009729F001975A969C93D2
:103B50008E9359978D819E810196F8019183808380
:103B6000EB81FC810190F081E02DF887EF839801D3
:103B7000235C3E4F3C832B83D9011C927801BEE22B
:103B8000EB0EF11C612C712C812C912C1E821D825C
:103B900055245394FCE04F2EF701808591858330A6
:103BA000910509F400C68430910509F41CC60297FA
:103BB00009F432C567013EE0C30ED11CA12CB12C23
:103BC000A301465C5F4F5A874987D60118968C91AE
:103BD00081112BC6FCE0AF0EB11C2CE0C20ED11C33
:103BE00034E2A316B10489F7D701D3968D919C9145
:103BF000D497009709F02CC6F70120853185AB8159
:103C0000BC819C9185A9890F8C93EF81F8853597AC
:103C10002CF0D701D2961C921E92D19724303105F8
:103C200014F03E832D83BFEF8B1A9B0AE6E36E0EE2
:103C3000711CF6E3EF0EF11C2EE0621621E0720615
:103C400009F0AACFA801425C5E4F5C874B87F80160
:103C5000E258FD4F118210827A0118861F826FEFA1
:103C60007FEF7C836B83FA87E987D70116968C9167
:103C70001697882309F47DC617968D919C91189705
:103C80008230910509F43CC608F4F8C583309105EB
:103C900009F0F9C5D7011996ED91FC911A97808525
:103CA0009185059709F45BC62281338186819781CE
:103CB000820F931F0797F70196878587C080D18071
:103CC000B60180E090E00E94352E20E030E040E236
:103CD00052E40E948D2D20E030E040E050E40E944C
:103CE000172D0E94882D2B013C0120E030E040EA96
:103CF00050E40E942B2F4B015C0120E030E0A90131
:103D00000E94262F20E030E040E05FE387FD2AC6D6
:103D1000C501B4010E94172D0E94FF2DD7015096B6
:103D20007C936E931F97B6016F5F7F4F80E090E0AA
:103D30000E94352E20E030E040E252E40E948D2DBA
:103D400020E030E040E050E40E94172D0E94882DD2
:103D50009B01AC01DD24D394C301B2010E94262F44
:103D600018160CF0D12CF701D18A82899389879794
:103D700008F4FDC5C7010E940811D7011996ED91FD
:103D8000FC911A978085918504970CF0F0C5F80195
:103D900081A5882309F4EBC5238D348D1B964D91A5
:103DA0005C911C971F968D919C915097840F951F45
:103DB000A901415051098417950709F0D8C541E080
:103DC00042A711A664E070E018967C936E93179753
:103DD0001C963C932E931B9750961C921E921F97F5
:103DE00081E0D70152962D913C9153972F5F3F4F21
:103DF00053963C932E935297F701478150859681B5
:103E0000992349F0A985BA852D913C9111972F5F8F
:103E10003F4F2D933C93882321F0EF81F885FC835D
:103E2000EB83452B69F4A985BA858D919C911197F7
:103E300001968D939C9323E030E0F7013087278330
:103E40004F8158854F5F5F4F58874F8354E1E50E90
:103E5000F11C6F8178856031710509F006CFD801BA
:103E600056968C91569781110C94E82A54968C9111
:103E7000882311F40C94E82A7801B0E8EB1ABDEF1E
:103E8000FB0AF7018285811176C5F7018385948548
:103E9000019794878387892B11F00C94E82A0E945C
:103EA0008D2C68E170E00E94563028ED3FEFA901AB
:103EB000481B590BD70117965C934E93169781E0D8
:103EC0001A968C931A9711961C921E9280E699E08E
:103ED0001C969C938E931B978CE390E0F801E95617
:103EE000FD4F9183808374E0E72EF12CF801E357B6
:103EF000FD4F808191818530910509F4D8C78630C6
:103F0000910511F40C949127049709F482C58091CE
:103F1000290690912A06FC01E956FD4F2081318146
:103F2000232B11F40C94E5270E94870FA0912906FA
:103F3000B0912A06FD01E657FD4F80818823E9F004
:103F40003897E081F0E0EE0FFF1F9F01265A3E4FA9
:103F5000CD0188579D4FFC0160817181AA57BD4FEB
:103F6000CC24C394F901E0800CE213E020E04AE79E
:103F700053E08D919C910E94DA0B0E94500F0E9499
:103F8000A60EA12CB12CE4E1FE2EE0912906F091C1
:103F90002A06FA9CC001FB9C900D11248E0F9F1FD6
:103FA000DC01AC5BBE4F2C9121110C941928FFEF62
:103FB000AF1ABF0A00E1A016B10439F7D101549637
:103FC0008C91549781110C946228809129069091CC
:103FD0002A06FC01E357FD4F20813181263031054F
:103FE00011F40C94512A84E00E944113882311F4A7
:103FF0000C94A32A8AEB94E00E94E40981E0809368
:1040000016020C94A32A80E00E9414130C94A32A95
:1040100080E00E94141380911302909114028D335A
:10402000910538F4019690931402809313020C9436
:10403000A32A109214021092130280E994E00E94C5
:10404000E40980913206909133060E94922C0091EF
:10405000290610912A06F801E357FD4F64E070E04D
:10406000718360833296118210823296108231966B
:10407000F082339684EB90E0918380833297918332
:104080008083349611821082349610823696118283
:1040900010823296118210828AEF90E0D801179632
:1040A0009C938E9316978CE090E019969C938E9338
:1040B000189720E030E04AE753E41C962D933D9397
:1040C0004D935C931F9720E030E040E85FEB509603
:1040D0002D933D934D935C9353975496FC92549734
:1040E00055961C92559756961C92569712961C926E
:1040F000129784E057968C93579758961C9258972E
:104100005A961C921E925997F801178E10A211A26E
:1041100012A293961D921D921D921C9296979796AD
:104120001C92979798961C9298979A961C929A9799
:1041300099961C92C8018E960E94E610F801EC5BDD
:10414000FE4FC8018C579D4F108274968E179F07A3
:10415000D9F7F801E058FD4F80E29CE1948783870E
:1041600088ED9FEF978386838CE090E0918780872E
:10417000128683E083830AE010E015830483A09114
:104180002906B0912A0657968C915797FD01E80FA2
:10419000F11DE456FD4F808190E01B969C938E9319
:1041A0001A978AE590E05A969C938E9359970C94AF
:1041B000A32AD10197968C919797882339F0599625
:1041C0008D919C915A97892B09F0FECB0E94720C1D
:1041D00085FF32C00091290610912A0620E030E0C8
:1041E000A901F801678D70A181A192A10E94262FDB
:1041F00018160CF450C0D80116968D919C91179703
:104200001A962D913C911B97821B930B40970CF0B3
:1042100042C057968C9157978823E9F18150579661
:104220008C93F801E80FF11DE456FD4F808190E07A
:10423000F801938782872FC00E94720C86FF2BC0E3
:104240000091290610912A0620E030E0A901D8014A
:104250005F966D917D918D919C9192970E94262FF2
:104260001816CCF0F8018285938526813781821B50
:10427000930B409784F48789843068F48F5F878B31
:10428000E80FF11DE456FD4F808190E0D8011B96A8
:104290009C938E931A970E94720C84FF40C00091E9
:1042A000290610912A06F8018589F08C81110C9459
:1042B000D52AE788F3E0FE1510F40C94D52AD8012E
:1042C00097968C9181110C94D52AB2E0BF1510F409
:1042D0000C94D52A20E030E0A901F80163A174A173
:1042E00085A196A10E94832D81110C94D52AF801F5
:1042F00026E3E29EE00DF11D112460A971A965512C
:104300007109072E000C880B990B0E94372ED801DB
:1043100093966D937D938D939C93969702C0109284
:1043200012020E94720C87FF4FCB00912906109158
:104330002A06F8018589811147CB8789843008F0E6
:1043400043CB87A1811140CB808D833008F03CCBDB
:1043500020E030E0A90163A174A185A196A10E948B
:10436000262F18160CF030CBD80193961D921D9273
:104370001D921C92969728CB21E0F801258B8A1577
:104380009B052CF46DEC7CEC8CE49DE304C06DEC9F
:104390007CEC8CE49DEBD80150962D913D914D9194
:1043A0005C9153970E94172D6B017C0120E030E057
:1043B00040E85FEB0E94262F18168CF420E030E0D6
:1043C00040E85FE3C701B6010E94832D87FD0DC061
:1043D000C12CD12CB0E8EB2EBFE3FB2E06C0C12CC4
:1043E000D12CA0E8EA2EAFEBFA2EF801C08AD18AD0
:1043F000E28AF38A4484558466847784B501BB0CD1
:10440000880B990B0E94372EA30192010E94162D52
:104410009F7720E030E040E851E40E94832D87FF41
:104420000FC026E636E646E65FE3C701B6010E9406
:104430002B2FD80150966D937D938D939C9353971A
:10444000F8012089318942895389C301B2010E9450
:10445000172D6B017C01D8011C966D937D938D9374
:104460009C931F9720E030E0A9010E94262F20E0B6
:1044700030E040E05FE387FD05C0C701B6010E9460
:10448000172D04C0C701B6010E94162D0E94FF2DF2
:10449000F80177836683B2CAF801C088D188E288C0
:1044A000F3882DEC3CEC4CEC5DE3C701B6010E94B7
:1044B000262F18165CF4D80112968C91129786302C
:1044C00008F0AACA8F5F12968C93A6CA2DEC3CEC1A
:1044D0004CEC5DEBC701B6010E94832D87FF9CCA9F
:1044E000F8018281882309F497CA8150828394CA93
:1044F000C701B6010E94162DB2CA2AE037ED43E289
:104500005CEBC301B2010E94832D87FDE8CAB12C88
:10451000F801C78ED0A2E1A2F2A2A7A0A11015C0F7
:1045200005C020E030E040E05FEBEACA82A58111DF
:104530000CC0BB24B39420E030E0A901C701B60150
:104540000E94262F18160CF0B12CD8019996BC9217
:1045500099979896AC92989797961C929797AA20BD
:1045600009F4D9CA9A968C91882309F4D4CA20E018
:1045700030E0A901C701B6010E94832D8111CBCA89
:1045800081E0F80185A712A6C6CA808191819C01AD
:104590002F5F3F4F3183208362E170E00E94423001
:1045A000892B31F4F8018085918501969187808768
:1045B000D80118968D919C91199749970CF4D0CAFF
:1045C00054961C92549726E030E0EB81FC813183B5
:1045D0002083F801EF55FD4F1182108256961C92F0
:1045E0005697F801178E10A211A212A293961D924F
:1045F0001D921D921C92969797961C92979798964B
:104600001C9298979A961C929A9799961C92E657A4
:10461000FD4F10820C94FE2A81A992A9019692ABBB
:1046200081AB803E9140B1F5D701D0962C91822F7D
:1046300090E0B6E3B89DF001B99DF00D1124429EC3
:10464000E00DF11D1124E00FF11FAF01405C5F4F41
:10465000D7012D913C912B5F3F4FDA012D933C9375
:104660004E5F5F4FD70112962D913C911397225FB9
:104670003F4FDA0111963C932E9312965C9211965D
:104680001C92B8E0B5AF019663E070E00E9456302E
:10469000F70180ABD701D1968D919C91D297803D47
:1046A0009240A9F5F70120A9822F90E036E3389DCA
:1046B000F001399DF00D1124429EE00DF11D1124F1
:1046C000E00FF11FAF01405C5F4FD7012D913C918E
:1046D000265F3F4FDA012D933C934E5F5F4FD7012A
:1046E00012962D913C911397275F3F4FDA01119657
:1046F0003C932E9312965C9211961C92B8E0B5AF43
:10470000019663E070E00E945630F70180ABD7015C
:10471000D1968D919C91D29784389340A9F5F70159
:1047200020A9822F90E036E3389DF001399DF00DED
:104730001124429EE00DF11D1124E00FF11FAF0185
:10474000405C5F4FD7012D913C912F5F3F4FDA01C5
:104750002D933C934E5F5F4FD70112962D913C9164
:1047600013972A5F3F4FDA0111963C932E931296CE
:104770005C9211961C92B8E0B5AF019663E070E0D0
:104780000E945630F70180ABD701D1968D919C9154
:10479000D2978932954008F40DCA23E030E0F70142
:1047A0003187208707CA81A992A9019692AB81AB74
:1047B0008930974028F024E030E0F70131872087E6
:1047C0000E948D2C6AE070E00E94563097FD07969B
:1047D000E3E095958795EA95E1F7D70117969C93C5
:1047E0008E931697E7C9F701828593850196938783
:1047F000828783709927892B09F0DCC9868197818C
:1048000001969783868322813381820F931F85349B
:1048100091050CF4CFC925E030E031872087578A15
:1048200053A257A612AA11AAC5C989859A858A0DCD
:104830009B1D800F911F0E940811F6018081863018
:1048400008F4C8C98185882309F4C4C91086C2C97F
:104850000197D4969C938E93D397892B09F0CCC95A
:1048600057965C92579793965C9293979F965C921B
:104870009F97D2961C921E92D197BEC9019709F0BC
:1048800076C0D7016CC0049709F071C0F701108A97
:104890001786D8015B968D919C915C9702979487BF
:1048A00083875D96CD90DC905E97B6010D2C000C51
:1048B000880B990B0E94372EF801278D30A141A15A
:1048C00052A10E94172D20E030E040EE50E40E94FB
:1048D000162D0E94FF2DD7011E967C936E931D9777
:1048E000B3E0CB1AD1086C157D052CF421E030E043
:1048F000F70130872783E2E0D7011296EC9337C0A7
:10490000F701118AC7010E940811D7011F962D9146
:104910003C9150972531310514F016961C92F70101
:104920008081918165E070E00E944230892BF9F42A
:10493000C9010196D701908B87878585968501846B
:10494000F285E02D228133812750310982179307A8
:1049500074F401961E969C938E931D9708C016962C
:104960001C9205C0C501B4010E94162DD5C980E076
:1049700038CA80E041CAC7010E940811D7016D9171
:104980007C911197CB0183709927892B49F4169656
:104990008D919C911797019617969C938E931697DD
:1049A000F70186819781833891050CF0128680E0AB
:1049B00090E00E94352E20E030E048EF51E40E9464
:1049C0008D2D0E94982F20E030E040E551E40E94B8
:1049D0002B2F4B015C0120E030E0A9010E94262F23
:1049E00020E030E040E05FE387FD05C0C501B40191
:1049F0000E94172D04C0C501B4010E94162D0E940B
:104A0000FF2D645F7F4FD70119967C936E931897A3
:104A1000DFC52D813E812530310531F4318320837E
:104A2000769611821082EAC5D80156968C915697D7
:104A3000811187C2ED81FE81349709F4BAC2F80171
:104A4000E556FD4F8C818095881F8827881F8083BD
:104A50002B813C812F3F4FEF340759F1EAE0F0E022
:104A60005A96FC93EE93599784E1829FF001839FBD
:104A7000F00D1124E00FF11FE95BFE4FC080D180E3
:104A8000D601D5968C91D5978150D5968C9381116E
:104A900010C00E948D2C68E770E00E945630CC96C2
:104AA000F60194AB83AB81E090E09187808712AAF6
:104AB00011AAF801E956FD4F80819181009721F0FC
:104AC000019791838083C3C0F801E35CFE4F20818E
:104AD000D80158968C9190E0820F911D4801BFE655
:104AE0008B1ABDEF9B0AD401EC91F0E0E95EFE4F1A
:104AF000208130E0821793070CF0A9C05801BDE671
:104B0000AB1ABDEFBB0AF501C080D180C601019789
:104B100091838083C114D10409F099C00E948D2C27
:104B200064E070E00E9456309927D401EC91F0E0E7
:104B3000E95EFE4F2081283008F458C523E036E3B3
:104B4000389FD001399FB00D1124A00FB11FD69608
:104B50004D915C91D797433051050CF049C5FD014B
:104B6000ED59FF4F9080921608F042C5D0962D91D6
:104B70003C91D19749E350E0421B530BF801E80FF9
:104B8000F91FE456FD4F208130E0285F3F4FF801C8
:104B9000EC5BFE4F608161111FC564E16C9DF0010B
:104BA0006D9DF00D11246B857C85E60FF71F61E08C
:104BB00066831086178266E3F62EF89EB001F99E92
:104BC000700D1124625D7F4F600F711F72876187C6
:104BD000108A17863487238756874587138A128A57
:104BE000118210821282F801E258FD4F208131813A
:104BF0002F5F3F4F3183208326E3289FF001299FB9
:104C0000F00D1124E00FF11FED59FF4F93949082A6
:104C1000D6968D919C91D797029734F482E090E0DC
:104C2000D7969C938E93D697F801EB56FD4FE08074
:104C3000F1800E948D2C68E770E00E944230E80EFF
:104C4000F91EF501F182E08283E0E82EF12CD80113
:104C500059962D913C915A972115310509F097C02D
:104C600057968C915797843009F091C055968C9146
:104C7000559781118CC05896DC905897DD2009F427
:104C800086C0F801E85FFE4F808191816DE270E09F
:104C9000681B790BE856FE4F408150E0485F5F4F3C
:104CA000EA59F140AC5BBE4F8C91811138C0A4E150
:104CB000A29FC001A39F900D1124AB85BC85A80FB6
:104CC000B91F81E016968C93169782E090E01896B3
:104CD0009C938E9317971A96FC93EE931997509680
:104CE0001C921E921F971C965C934E931B971E96C8
:104CF0007C936E931D9788EE93E053969C938E93CE
:104D0000529711961C921E9212961C92F801E2582C
:104D1000FD4F8081918101969183808307C02F5F31
:104D20003F4F54962031310509F0BECFDA94F80197
:104D3000D08E81E290E0928F818FE157FD4F80818C
:104D40009181019691838083D801AE56BD4F8C919D
:104D500081508C93811118C0A8014F565D4FFA0104
:104D60008081282F30E0295E3E4FF90191819923FF
:104D700019F08F5FFA018083FA018081E82FF0E05B
:104D8000E95EFE4F80818C9382E0E82EF12C680171
:104D9000F6E7CF1AFDEFDF0AD6018C91882309F4DC
:104DA000D0C0F801E857FD4F60817181072E000CDB
:104DB000880B990B0E94372E20E030E040EB50E446
:104DC0000E94172D0E94FF2D4B015C01F801EA574C
:104DD000FD4F60817181072E000C880B990B0E949A
:104DE000372E20E030E040EB50E40E94172D0E9467
:104DF000FF2DF8012689222311F0148AA2C02681F2
:104E00003781265F3F4F621B730B80859185069625
:104E1000881A990A669F9001679F300D300D112402
:104E2000889CC001899C900D900D1124B901680FD8
:104E3000791F072E000C880B990B0E94372E0E94B9
:104E4000A62F4B015C0120E030E048E251E40E94D3
:104E5000832D881F8827881FF801868B20E030E08B
:104E600048E251E4C501B4010E94832D87FF69C067
:104E7000D6011C92F80111821082178E10A211A285
:104E800012A213A214A215A216A217A210A612A66D
:104E900011A6EC5BFE4F0C571D4F81819281049748
:104EA00009F4108274960E171F07B9F730C8D8019D
:104EB000AD55BD4F8D919C9111979C012F5F3F4F38
:104EC0002D933C938937910508F421C8D801549655
:104ED0001C92549726E030E031832083F801EF558F
:104EE000FD4F1182108256961C925697F801178E2C
:104EF00010A211A212A293961D921D921D921C92B5
:104F0000969797961C92979798961C9298979A9630
:104F10001C929A9799961C92E657FD4F10820C941A
:104F2000871FF801EF55FD4F808191819C012F5F14
:104F30003F4F31832083853A914010F40C94871FB2
:104F400018C0E2E0EE16F10431F130F4EA94EF28F3
:104F500011F00C94871F0DC013E0E116F10419F154
:104F600024E0E216F10411F00C94871F86ED93E023
:104F70001CC08091290690912A068E960E94E61008
:104F8000E0912906F0912A06E357FD4F82E090E078
:104F900091838083D8C28091110281110C94871F64
:104FA00082E894E002C088E694E00E94E4090C9450
:104FB000871F0E948D2C6CE370E00E945630805B4E
:104FC0009F4F0E944C130C94871F34968081882336
:104FD00019F080EC93E029C0D1019D968C91882333
:104FE00019F08EEA93E021C0F10180A5882321F019
:104FF0000E94CC080C94941F87A1882311F40C9470
:10500000941F8091110281110C94941F20E030E0D4
:10501000A901F10163A174A185A196A10E94832D2C
:10502000882309F4EFC286E993E00E94E4090C9416
:10503000941F11962D913C9111972230310514F453
:105040000C94D71F1B968D919C918732910540F44B
:1050500066E070E00E944230039710F40C94D71F72
:10506000FA9CC001FB9C900D1124E80FF91FDF0191
:10507000A15BBE4F8C91880F880F1F979C91890F61
:1050800090E0880F991F9C01265B3E4FCF01855B06
:105090009E4FDC016D917C9177270297E35BFE4F79
:1050A000DC018C919081890FCC24C394F901E080BC
:1050B00006E013E020E046E253E090E00E94DA0BC5
:1050C0000C94D71F56962C9156978D919C91222324
:1050D00019F08F359105F0F49695879566E070E0AC
:1050E0000E944230FC01EE0FFF1FE25CFE4FD10137
:1050F00018966D917C911997CC24C394E0800BE9AC
:1051000012E020E04FEE52E016968D919C91179799
:105110000E94DA0BF1018689811197C0E281F0E0EB
:10512000EE0FFF1FE05DFE4FD10118966D917C914F
:1051300019976C5F7F4FCC24C394E08001EF11E09E
:1051400020E044E852E016968D919C9117970E94BA
:10515000DA0B10E003E0812E912CA12CB12CF1018F
:10516000C78CD0A0E1A0F2A020E030E0A901C701E7
:10517000B6010E94262F20E030E040E05FE387FD8B
:1051800005C0C701B6010E94172D04C0C701B601B2
:105190000E94162D0E94FF2D86169706A806B906B6
:1051A00014F00C94E51F812F602F0E943630992354
:1051B00071F0D1015D966D917C915E97610F711DCB
:1051C00040E05B968D919C915C970E94410D11236C
:1051D000D1F1F101C78CD0A0E1A0F2A020E030E035
:1051E000A901C701B6010E94262F20E030E040E06F
:1051F0005FE387FD05C0C701B6010E94172D04C0FB
:10520000C701B6010E94162D0E94FF2DDC01CB01C3
:105210000197A109B10988169906AA06BB0699F457
:10522000D1015D966D917C915E97610F711D603427
:10523000710548F45B968D919C915C9720E043E06A
:1052400001970E948C0C1F5F86CFF10100811181B4
:10525000B80180E090E00E94352E4B015C0120E017
:1052600030E040EF52E40E948D2D9B01AC0166E6D8
:1052700076E686EA9FE30E94162D6B017C012DECF9
:105280003CEC4CEC5DE30E94832D87FD06C12DECC8
:105290003CEC4CE45EE3C701B6010E94262F1816D1
:1052A0000CF0FBC0D10112968C91833018F438E0D9
:1052B000732E02C028EF722EC8016EE070E00E94CB
:1052C0004230162F20E030E040E05FE3C501B4013A
:1052D0000E942B2F0E94982F20E030E040EC50E4F9
:1052E0000E942B2FA70196010E942B2F4B015C01DE
:1052F00020E030E0A9010E94262F18161CF4C501F9
:10530000B40103C0C501B40190580E94062EA62E18
:10531000F1010085085F010FB6800E948D2C63E0CB
:1053200070E00E94563099E09B0D20E04A2D602FDE
:10533000890F0E949A0F20E030E040E850E4C70156
:10534000B6010E942B2F20E030E040E85FE30E948E
:10535000262F18160CF03FC0D1016D917C9180E092
:1053600090E00E94352E20E030E040E85EE30E94AD
:105370002B2F0E94982F20E030E040E850E40E945C
:105380002B2FA70196010E942B2F4B015C0120E0DF
:1053900030E0A9010E94262F18161CF4C501B401A3
:1053A00003C0C501B40190580E94062EA62EF1013B
:1053B000808598E0B92EB80E0681085F0E948D2C7A
:1053C000700E65E070E00E94563020E04A2D6B2D93
:1053D000870D0E949A0F20E030E040E450E4C701BE
:1053E000B6010E942B2F20E030E040E85FE30E94EE
:1053F000262F18160CF045C0D1016D917C9180E0EC
:1054000090E00E94352E20E030E040E450E40E941D
:105410008D2D0E94982F20E030E040EE50E40E9455
:105420002B2FA70196010E942B2F6B017C0120E0FE
:1054300030E0A9010E94262F18161CF4C701B601FE
:1054400003C0C701B60190580E94062E062F809116
:10545000290690912A06FC01E857FD4F20812A5F1A
:10546000120F3297F0800E948D2C35E03F0D63E0E3
:1054700070E00E94563020E0402F612F830F0E9481
:105480009A0F0E948D2C60EA70E00E945630805B7B
:105490009F4F0E944C130C94E51F0E94CC080C9463
:1054A000E51F749680819181CC97C9F487EB91E0D8
:1054B0000E94E4098091290690912A06FC01E15797
:1054C000FD4F2081318187569D4FFC0140815181E4
:1054D0004217530720F4318320830E947C12E0910D
:1054E0002906F0912A06EF55FD4F80819181CD97D5
:1054F0008B32914040F5FF24F394F0923F061092D6
:105500003E0688E290E090933B0680933A0607E1DE
:1055100010E010933D0600933C068CEC91E00E9455
:105520002F13F0923F0610923E0683E490E0909392
:105530003B0680933A0610933D0600933C0689E0B3
:1055400092E00E942F1380E00E9420130E947A0CA8
:1055500080E090E0892B11F40C94041A0E94000062
:105560000C94041A2115310591F0FD01E60FF71F87
:10557000E653FF4FE491F0E02F01062C02C0559452
:1055800047940A94E2F7F5018080482840821196FA
:10559000FFEFAF1ABF0AEFEFCE1ADE0AA835B1054A
:1055A00011F00C9413190C94031902E00F1510F06C
:1055B0000C9491218091120281110C9491218DE81B
:1055C00091E00E94E40981E0809312020C94912101
:1055D000E12CF12C0C94761F7FEFC71AD70A749632
:1055E00060E1C616D10409F0D5CA06CB22E0A7CAED
:1055F00081E090E0D5018D939C9329CB0E94CC084B
:105600000C94871F84EA93E010CD0F931F93CF93E0
:10561000DF938C0181E090E00E947F0C80FF32C01C
:105620008AE090E00E947F0C9FEF980F9E3F50F51C
:1056300022E330E0D80150963C932E931F9728E345
:1056400030E052963C932E935197CBE0D0E0D801B6
:10565000ED91FC910190F081E02D682FC801099532
:10566000CE010E947F0C2196C131D10581F780E0E7
:105670000E94201388EE93E0DF91CF911F910F914C
:105680000C946D0CDF91CF911F910F9108950497A9
:105690000C94052BCF93DF93109251061092500675
:1056A00088EE93E0A0E0B0E080935206909353061A
:1056B000A0935406B09355068FE791E090934F0660
:1056C00080934E068FEF9FEF90935B0680935A0670
:1056D00010922E0610922D06109234061092350666
:1056E00080E18093360610923306109232061092B3
:1056F000380681E991E090932C0680932B068FE980
:1057000091E09093300680932F0610923B06109202
:105710003A0610923D0610923C0681E080933E06C8
:1057200010923F06809340061092410682EC98E06A
:10573000909328068093270680E090E89093AB062C
:105740008093AA0646983E9A47983F9A85EA92E047
:105750000E947030EC0185EA92E0FE019C011192FA
:1057600021503040E1F7198218821A8284E08B833D
:1057700088E090E09D838C83CE01CA969E01285BD1
:105780003E4F44E068E070E0DC019496FC01118239
:10579000108212824383758364833C96AE17BF07E1
:1057A000B1F7C6962817390779F7FE01E45CFE4F7A
:1057B00010823296CE0182589D4F44E028E030E0BE
:1057C0001182108212824383358324837496E817F2
:1057D000F907B1F7FE01E058FD4F118210821282E5
:1057E00084E0838388E090E0958384833D961182F2
:1057F00010823E961082DE01A456BD4F85E0E6E79A
:10580000F1E001900D928A95E1F7D0932A06C093BA
:105810002906DF91CF910895DF92EF92FF920F93C7
:105820001F93CF93DF93D82EF92EE42E062F10E08E
:10583000C8010196880F0E947C1383E00E947C13AC
:10584000CD2DDF2D0C0F1D1FC017D10789F0E7FEEE
:1058500003C0FE01849101C088810E947C13F82E50
:1058600080E00E947C138F2121968111EDCF01C031
:1058700081E0DF91CF911F910F91FF90EF90DF902A
:1058800008958F929F92AF92BF92CF92DF92EF9244
:10589000FF92CF93DF93EC01688179818A819B81AC
:1058A000611571058105910521F464E279ED8BE5BF
:1058B00097E02DE133EF41E050E00E94B32C490125
:1058C0005A019B01AC01A7EAB1E40E94D22C6B0102
:1058D0007C01ACEEB4EFA50194010E94E02CDC0148
:1058E000CB018C0D9D1DAE1DBF1DB7FF03C00197E1
:1058F000A109B04888839983AA83BB839F77DF91EE
:10590000CF91FF90EF90DF90CF90BF90AF909F909E
:105910008F9008950E94412C08958DE091E00E949F
:10592000412C0895A0E0B0E080930D0190930E010A
:10593000A0930F01B09310010895F999FECF92BD85
:1059400081BDF89A992780B50895262FF999FECF41
:105950001FBA92BD81BD20BD0FB6F894FA9AF99A8C
:105960000FBE01960895052E97FB1EF400940E9429
:10597000CA2C57FD07D00E94E52C07FC03D04EF43B
:105980000C94CA2C50954095309521953F4F4F4F20
:105990005F4F089590958095709561957F4F8F4FDB
:1059A0009F4F08950E94072DA59F900DB49F900DC5
:1059B000A49F800D911D11240895B7FF0C94D22C43
:1059C0000E94D22C821B930B0895A1E21A2EAA1BCF
:1059D000BB1BFD010DC0AA1FBB1FEE1FFF1FA2179F
:1059E000B307E407F50720F0A21BB30BE40BF50B9C
:1059F000661F771F881F991F1A9469F76095709525
:105A0000809590959B01AC01BD01CF010895A29FA7
:105A1000B001B39FC001A39F700D811D1124911D82
:105A2000B29F700D811D1124911D08955058BB2700
:105A3000AA270E942E2D0C94D82E0E949F2E38F05B
:105A40000E94A62E20F039F49F3F19F426F40C94FE
:105A50009C2E0EF4E095E7FB0C94962EE92F0E9405
:105A6000FD2E58F3BA17620773078407950720F0D5
:105A700079F4A6F50C941F2F0EF4E0950B2EBA2F97
:105A8000A02D0B01B90190010C01CA01A001112444
:105A9000FF27591B99F0593F50F4503E68F11A16F0
:105AA000F040A22F232F342F4427585FF3CF469581
:105AB00037952795A795F0405395C9F77EF41F16A3
:105AC000BA0B620B730B840BBAF09150A1F0FF0F6D
:105AD000BB1F661F771F881FC2F70EC0BA0F621F59
